{
  "contractName": "LNKSExchange",
  "abi": [
    {
      "constant": true,
      "inputs": [
        {
          "name": "",
          "type": "address"
        }
      ],
      "name": "owners",
      "outputs": [
        {
          "name": "",
          "type": "bool"
        }
      ],
      "payable": false,
      "stateMutability": "view",
      "type": "function"
    },
    {
      "constant": false,
      "inputs": [
        {
          "name": "addr",
          "type": "address"
        }
      ],
      "name": "removeOwner",
      "outputs": [],
      "payable": false,
      "stateMutability": "nonpayable",
      "type": "function"
    },
    {
      "constant": true,
      "inputs": [
        {
          "name": "addr",
          "type": "address"
        }
      ],
      "name": "validate",
      "outputs": [
        {
          "name": "",
          "type": "bool"
        }
      ],
      "payable": false,
      "stateMutability": "view",
      "type": "function"
    },
    {
      "constant": false,
      "inputs": [
        {
          "name": "addr",
          "type": "address"
        }
      ],
      "name": "addOwner",
      "outputs": [],
      "payable": false,
      "stateMutability": "nonpayable",
      "type": "function"
    },
    {
      "constant": true,
      "inputs": [],
      "name": "fee",
      "outputs": [
        {
          "name": "",
          "type": "uint256"
        }
      ],
      "payable": false,
      "stateMutability": "view",
      "type": "function"
    },
    {
      "constant": true,
      "inputs": [],
      "name": "token",
      "outputs": [
        {
          "name": "",
          "type": "address"
        }
      ],
      "payable": false,
      "stateMutability": "view",
      "type": "function"
    },
    {
      "inputs": [],
      "payable": false,
      "stateMutability": "nonpayable",
      "type": "constructor"
    },
    {
      "payable": true,
      "stateMutability": "payable",
      "type": "fallback"
    },
    {
      "anonymous": false,
      "inputs": [
        {
          "indexed": false,
          "name": "_buyer",
          "type": "address"
        },
        {
          "indexed": false,
          "name": "_amount",
          "type": "uint256"
        },
        {
          "indexed": false,
          "name": "_timestamp",
          "type": "uint256"
        }
      ],
      "name": "BuyDirectEvent",
      "type": "event"
    },
    {
      "anonymous": false,
      "inputs": [
        {
          "indexed": false,
          "name": "_redeember",
          "type": "address"
        },
        {
          "indexed": false,
          "name": "_amount",
          "type": "uint256"
        },
        {
          "indexed": false,
          "name": "_timestamp",
          "type": "uint256"
        }
      ],
      "name": "RedeemEvent",
      "type": "event"
    },
    {
      "constant": false,
      "inputs": [
        {
          "name": "_tokenAddress",
          "type": "address"
        }
      ],
      "name": "setTokenAddress",
      "outputs": [],
      "payable": false,
      "stateMutability": "nonpayable",
      "type": "function"
    },
    {
      "constant": false,
      "inputs": [],
      "name": "buyDirect",
      "outputs": [],
      "payable": true,
      "stateMutability": "payable",
      "type": "function"
    },
    {
      "constant": true,
      "inputs": [
        {
          "name": "_index",
          "type": "uint256"
        }
      ],
      "name": "getOrder",
      "outputs": [
        {
          "name": "",
          "type": "address"
        },
        {
          "name": "",
          "type": "uint256"
        },
        {
          "name": "",
          "type": "uint256"
        }
      ],
      "payable": false,
      "stateMutability": "view",
      "type": "function"
    },
    {
      "constant": false,
      "inputs": [
        {
          "name": "_index",
          "type": "uint256"
        },
        {
          "name": "_tokensAmount",
          "type": "uint256"
        }
      ],
      "name": "approveOrder",
      "outputs": [],
      "payable": false,
      "stateMutability": "nonpayable",
      "type": "function"
    },
    {
      "constant": false,
      "inputs": [
        {
          "name": "_index",
          "type": "uint256"
        }
      ],
      "name": "declineOrder",
      "outputs": [],
      "payable": false,
      "stateMutability": "nonpayable",
      "type": "function"
    },
    {
      "constant": false,
      "inputs": [
        {
          "name": "_fee",
          "type": "uint256"
        }
      ],
      "name": "setNewFee",
      "outputs": [],
      "payable": false,
      "stateMutability": "nonpayable",
      "type": "function"
    },
    {
      "constant": true,
      "inputs": [
        {
          "name": "_amount",
          "type": "uint256"
        }
      ],
      "name": "calculateFee",
      "outputs": [
        {
          "name": "",
          "type": "uint256"
        }
      ],
      "payable": false,
      "stateMutability": "view",
      "type": "function"
    },
    {
      "constant": true,
      "inputs": [],
      "name": "getOrdersLength",
      "outputs": [
        {
          "name": "",
          "type": "uint256"
        }
      ],
      "payable": false,
      "stateMutability": "view",
      "type": "function"
    },
    {
      "constant": false,
      "inputs": [
        {
          "name": "_value",
          "type": "uint256"
        },
        {
          "name": "_location",
          "type": "string"
        }
      ],
      "name": "redeem",
      "outputs": [
        {
          "name": "",
          "type": "uint256"
        }
      ],
      "payable": false,
      "stateMutability": "nonpayable",
      "type": "function"
    },
    {
      "constant": false,
      "inputs": [
        {
          "name": "_index",
          "type": "uint256"
        }
      ],
      "name": "approveRedemption",
      "outputs": [],
      "payable": false,
      "stateMutability": "nonpayable",
      "type": "function"
    },
    {
      "constant": false,
      "inputs": [
        {
          "name": "_index",
          "type": "uint256"
        }
      ],
      "name": "declineRedemption",
      "outputs": [],
      "payable": false,
      "stateMutability": "nonpayable",
      "type": "function"
    },
    {
      "constant": true,
      "inputs": [],
      "name": "getRedemptionsLength",
      "outputs": [
        {
          "name": "",
          "type": "uint256"
        }
      ],
      "payable": false,
      "stateMutability": "view",
      "type": "function"
    },
    {
      "constant": true,
      "inputs": [
        {
          "name": "_index",
          "type": "uint256"
        }
      ],
      "name": "getRedemption",
      "outputs": [
        {
          "name": "",
          "type": "address"
        },
        {
          "name": "",
          "type": "uint256"
        },
        {
          "name": "",
          "type": "string"
        },
        {
          "name": "",
          "type": "uint256"
        }
      ],
      "payable": false,
      "stateMutability": "view",
      "type": "function"
    },
    {
      "constant": false,
      "inputs": [
        {
          "name": "_url",
          "type": "string"
        },
        {
          "name": "_amount",
          "type": "uint256"
        }
      ],
      "name": "addCertificate",
      "outputs": [],
      "payable": false,
      "stateMutability": "nonpayable",
      "type": "function"
    },
    {
      "constant": true,
      "inputs": [],
      "name": "getCertificatesLength",
      "outputs": [
        {
          "name": "",
          "type": "uint256"
        }
      ],
      "payable": false,
      "stateMutability": "view",
      "type": "function"
    },
    {
      "constant": true,
      "inputs": [
        {
          "name": "_index",
          "type": "uint256"
        }
      ],
      "name": "getCertificate",
      "outputs": [
        {
          "name": "",
          "type": "string"
        },
        {
          "name": "",
          "type": "uint256"
        },
        {
          "name": "",
          "type": "uint256"
        }
      ],
      "payable": false,
      "stateMutability": "view",
      "type": "function"
    },
    {
      "constant": false,
      "inputs": [
        {
          "name": "_index",
          "type": "uint256"
        }
      ],
      "name": "deleteCertificate",
      "outputs": [],
      "payable": false,
      "stateMutability": "nonpayable",
      "type": "function"
    },
    {
      "constant": false,
      "inputs": [
        {
          "name": "_availableTokens",
          "type": "uint256"
        }
      ],
      "name": "setAvailableTokens",
      "outputs": [],
      "payable": false,
      "stateMutability": "nonpayable",
      "type": "function"
    },
    {
      "constant": true,
      "inputs": [],
      "name": "tokensSupplyAvailable",
      "outputs": [
        {
          "name": "",
          "type": "int256"
        }
      ],
      "payable": false,
      "stateMutability": "view",
      "type": "function"
    },
    {
      "constant": true,
      "inputs": [],
      "name": "getSilverReserves",
      "outputs": [
        {
          "name": "",
          "type": "uint256"
        }
      ],
      "payable": false,
      "stateMutability": "view",
      "type": "function"
    },
    {
      "constant": false,
      "inputs": [
        {
          "name": "_silverPriceMarkup",
          "type": "uint256"
        }
      ],
      "name": "setSilverPriceMarkup",
      "outputs": [
        {
          "name": "",
          "type": "uint256"
        }
      ],
      "payable": false,
      "stateMutability": "nonpayable",
      "type": "function"
    },
    {
      "constant": true,
      "inputs": [],
      "name": "getSilverPriceMarkup",
      "outputs": [
        {
          "name": "",
          "type": "uint256"
        }
      ],
      "payable": false,
      "stateMutability": "view",
      "type": "function"
    },
    {
      "constant": false,
      "inputs": [
        {
          "name": "_to",
          "type": "address"
        },
        {
          "name": "_amount",
          "type": "uint256"
        }
      ],
      "name": "withdraw",
      "outputs": [],
      "payable": false,
      "stateMutability": "nonpayable",
      "type": "function"
    }
  ],
  "bytecode": "0x60606040526000600655600060075560006008556000600955341561002357600080fd5b60016000803373ffffffffffffffffffffffffffffffffffffffff1673ffffffffffffffffffffffffffffffffffffffff16815260200190815260200160002060006101000a81548160ff02191690831515021790555061012c600681905550610bb8600981905550612e5c8061009b6000396000f300606060405260043610610175576000357c0100000000000000000000000000000000000000000000000000000000900463ffffffff168063022914a71461017757806307c2e16c146101c8578063173825d9146101f15780631953cc211461022a578063207c64fb1461030757806324b76fd51461035857806326a4e8d2146103d25780632aa070b91461040b578063342a382d146104345780634198bb7b1461045d578063483e0bd91461048957806351640fee14610493578063700479241461053d5780637065cb4814610560578063883eeb6e1461059957806399a5d747146105bc578063b7f5f9e6146105f3578063c503b4da14610659578063c679ded614610682578063ccbdb85c146106ab578063d09ef241146106ce578063dcec2afc1461073f578063ddca3f4314610776578063eab9d2561461079f578063f3fef3a3146107c8578063f4ef90be1461080a578063f4f331581461082d578063f6d893ec14610850578063fc0c546a14610873575b005b341561018257600080fd5b6101ae600480803573ffffffffffffffffffffffffffffffffffffffff169060200190919050506108c8565b604051808215151515815260200191505060405180910390f35b34156101d357600080fd5b6101db6108e8565b6040518082815260200191505060405180910390f35b34156101fc57600080fd5b610228600480803573ffffffffffffffffffffffffffffffffffffffff16906020019091905050610953565b005b341561023557600080fd5b61024b60048080359060200190919050506109ff565b604051808573ffffffffffffffffffffffffffffffffffffffff1673ffffffffffffffffffffffffffffffffffffffff16815260200184815260200180602001838152602001828103825284818151815260200191508051906020019080838360005b838110156102c95780820151818401526020810190506102ae565b50505050905090810190601f1680156102f65780820380516001836020036101000a031916815260200191505b509550505050505060405180910390f35b341561031257600080fd5b61033e600480803573ffffffffffffffffffffffffffffffffffffffff16906020019091905050610bd0565b604051808215151515815260200191505060405180910390f35b341561036357600080fd5b6103bc600480803590602001909190803590602001908201803590602001908080601f01602080910402602001604051908101604052809392919081815260200183838082843782019150505050505091905050610c25565b6040518082815260200191505060405180910390f35b34156103dd57600080fd5b610409600480803573ffffffffffffffffffffffffffffffffffffffff169060200190919050506110bc565b005b341561041657600080fd5b61041e61115e565b6040518082815260200191505060405180910390f35b341561043f57600080fd5b610447611212565b6040518082815260200191505060405180910390f35b341561046857600080fd5b610487600480803590602001909190803590602001909190505061127d565b005b610491611714565b005b341561049e57600080fd5b6104b46004808035906020019091905050611869565b6040518080602001848152602001838152602001828103825285818151815260200191508051906020019080838360005b838110156105005780820151818401526020810190506104e5565b50505050905090810190601f16801561052d5780820380516001836020036101000a031916815260200191505b5094505050505060405180910390f35b341561054857600080fd5b61055e600480803590602001909190505061197d565b005b341561056b57600080fd5b610597600480803573ffffffffffffffffffffffffffffffffffffffff16906020019091905050611cf4565b005b34156105a457600080fd5b6105ba6004808035906020019091905050611da0565b005b34156105c757600080fd5b6105dd6004808035906020019091905050611f03565b6040518082815260200191505060405180910390f35b34156105fe57600080fd5b610657600480803590602001908201803590602001908080601f01602080910402602001604051908101604052809392919081815260200183838082843782019150505050505091908035906020019091905050611f36565b005b341561066457600080fd5b61066c61203c565b6040518082815260200191505060405180910390f35b341561068d57600080fd5b610695612049565b6040518082815260200191505060405180910390f35b34156106b657600080fd5b6106cc6004808035906020019091905050612053565b005b34156106d957600080fd5b6106ef60048080359060200190919050506122a0565b604051808473ffffffffffffffffffffffffffffffffffffffff1673ffffffffffffffffffffffffffffffffffffffff168152602001838152602001828152602001935050505060405180910390f35b341561074a57600080fd5b61076060048080359060200190919050506123bd565b6040518082815260200191505060405180910390f35b341561078157600080fd5b610789612429565b6040518082815260200191505060405180910390f35b34156107aa57600080fd5b6107b261242f565b6040518082815260200191505060405180910390f35b34156107d357600080fd5b610808600480803573ffffffffffffffffffffffffffffffffffffffff16906020019091908035906020019091905050612439565b005b341561081557600080fd5b61082b60048080359060200190919050506124db565b005b341561083857600080fd5b61084e6004808035906020019091905050612543565b005b341561085b57600080fd5b6108716004808035906020019091905050612903565b005b341561087e57600080fd5b61088661296b565b604051808273ffffffffffffffffffffffffffffffffffffffff1673ffffffffffffffffffffffffffffffffffffffff16815260200191505060405180910390f35b60006020528060005260406000206000915054906101000a900460ff1681565b6000600115156000803373ffffffffffffffffffffffffffffffffffffffff1673ffffffffffffffffffffffffffffffffffffffff16815260200190815260200160002060009054906101000a900460ff16151514151561094857600080fd5b600380549050905090565b6000803373ffffffffffffffffffffffffffffffffffffffff1673ffffffffffffffffffffffffffffffffffffffff16815260200190815260200160002060009054906101000a900460ff16156109fc5760008060008373ffffffffffffffffffffffffffffffffffffffff1673ffffffffffffffffffffffffffffffffffffffff16815260200190815260200160002060006101000a81548160ff0219169083151502179055505b50565b600080610a0a6129c8565b6000610a146129dc565b600115156000803373ffffffffffffffffffffffffffffffffffffffff1673ffffffffffffffffffffffffffffffffffffffff16815260200190815260200160002060009054906101000a900460ff161515141515610a7257600080fd5b600486815481101515610a8157fe5b9060005260206000209060040201608060405190810160405290816000820160009054906101000a900473ffffffffffffffffffffffffffffffffffffffff1673ffffffffffffffffffffffffffffffffffffffff1673ffffffffffffffffffffffffffffffffffffffff168152602001600182018054600181600116156101000203166002900480601f016020809104026020016040519081016040528092919081815260200182805460018160011615610100020316600290048015610b8a5780601f10610b5f57610100808354040283529160200191610b8a565b820191906000526020600020905b815481529060010190602001808311610b6d57829003601f168201915b5050505050815260200160028201548152602001600382015481525050905080600001518160400151826020015183606001518191509450945094509450509193509193565b60008060008373ffffffffffffffffffffffffffffffffffffffff1673ffffffffffffffffffffffffffffffffffffffff16815260200190815260200160002060009054906101000a900460ff169050919050565b6000610c2f6129dc565b83600160009054906101000a900473ffffffffffffffffffffffffffffffffffffffff1673ffffffffffffffffffffffffffffffffffffffff166370a08231336000604051602001526040518263ffffffff167c0100000000000000000000000000000000000000000000000000000000028152600401808273ffffffffffffffffffffffffffffffffffffffff1673ffffffffffffffffffffffffffffffffffffffff168152602001915050602060405180830381600087803b1515610cf557600080fd5b6102c65a03f11515610d0657600080fd5b5050506040518051905010151515610d1d57600080fd5b600160009054906101000a900473ffffffffffffffffffffffffffffffffffffffff1673ffffffffffffffffffffffffffffffffffffffff166352ec85293330876000604051602001526040518463ffffffff167c0100000000000000000000000000000000000000000000000000000000028152600401808473ffffffffffffffffffffffffffffffffffffffff1673ffffffffffffffffffffffffffffffffffffffff1681526020018373ffffffffffffffffffffffffffffffffffffffff1673ffffffffffffffffffffffffffffffffffffffff1681526020018281526020019350505050602060405180830381600087803b1515610e1e57600080fd5b6102c65a03f11515610e2f57600080fd5b5050506040518051905050600160009054906101000a900473ffffffffffffffffffffffffffffffffffffffff1673ffffffffffffffffffffffffffffffffffffffff166323b872dd3330876000604051602001526040518463ffffffff167c0100000000000000000000000000000000000000000000000000000000028152600401808473ffffffffffffffffffffffffffffffffffffffff1673ffffffffffffffffffffffffffffffffffffffff1681526020018373ffffffffffffffffffffffffffffffffffffffff1673ffffffffffffffffffffffffffffffffffffffff1681526020018281526020019350505050602060405180830381600087803b1515610f3b57600080fd5b6102c65a03f11515610f4c57600080fd5b50505060405180519050506080604051908101604052803373ffffffffffffffffffffffffffffffffffffffff16815260200184815260200185815260200142815250905060048054806001018281610fa59190612a21565b9160005260206000209060040201600083909190915060008201518160000160006101000a81548173ffffffffffffffffffffffffffffffffffffffff021916908373ffffffffffffffffffffffffffffffffffffffff160217905550602082015181600101908051906020019061101e929190612a53565b5060408201518160020155606082015181600301555050507f0e46a0c191564864bd7a70f14ef566cba8f8494211c829a52275f65d5b7d4ce2816000015182604001518360600151604051808473ffffffffffffffffffffffffffffffffffffffff1673ffffffffffffffffffffffffffffffffffffffff168152602001838152602001828152602001935050505060405180910390a15092915050565b600115156000803373ffffffffffffffffffffffffffffffffffffffff1673ffffffffffffffffffffffffffffffffffffffff16815260200190815260200160002060009054906101000a900460ff16151514151561111a57600080fd5b80600160006101000a81548173ffffffffffffffffffffffffffffffffffffffff021916908373ffffffffffffffffffffffffffffffffffffffff16021790555050565b6000600160009054906101000a900473ffffffffffffffffffffffffffffffffffffffff1673ffffffffffffffffffffffffffffffffffffffff166318160ddd6000604051602001526040518163ffffffff167c0100000000000000000000000000000000000000000000000000000000028152600401602060405180830381600087803b15156111ee57600080fd5b6102c65a03f115156111ff57600080fd5b5050506040518051905060085403905090565b6000600115156000803373ffffffffffffffffffffffffffffffffffffffff1673ffffffffffffffffffffffffffffffffffffffff16815260200190815260200160002060009054906101000a900460ff16151514151561127257600080fd5b600480549050905090565b611285612ad3565b6000600115156000803373ffffffffffffffffffffffffffffffffffffffff1673ffffffffffffffffffffffffffffffffffffffff16815260200190815260200160002060009054906101000a900460ff1615151415156112e557600080fd5b60006003858154811015156112f657fe5b9060005260206000209060030201600101541015151561131557600080fd5b60038481548110151561132457fe5b9060005260206000209060030201606060405190810160405290816000820160009054906101000a900473ffffffffffffffffffffffffffffffffffffffff1673ffffffffffffffffffffffffffffffffffffffff1673ffffffffffffffffffffffffffffffffffffffff1681526020016001820154815260200160028201548152505091506000151560026000846000015173ffffffffffffffffffffffffffffffffffffffff1673ffffffffffffffffffffffffffffffffffffffff16815260200190815260200160002060009054906101000a900460ff161515141561155c5761141083611f03565b9050611425818461299190919063ffffffff16565b9250600160009054906101000a900473ffffffffffffffffffffffffffffffffffffffff1673ffffffffffffffffffffffffffffffffffffffff166340c10f1930836040518363ffffffff167c0100000000000000000000000000000000000000000000000000000000028152600401808373ffffffffffffffffffffffffffffffffffffffff1673ffffffffffffffffffffffffffffffffffffffff16815260200182815260200192505050600060405180830381600087803b15156114eb57600080fd5b6102c65a03f115156114fc57600080fd5b505050600160026000846000015173ffffffffffffffffffffffffffffffffffffffff1673ffffffffffffffffffffffffffffffffffffffff16815260200190815260200160002060006101000a81548160ff0219169083151502179055505b600160009054906101000a900473ffffffffffffffffffffffffffffffffffffffff1673ffffffffffffffffffffffffffffffffffffffff166340c10f198360000151856040518363ffffffff167c0100000000000000000000000000000000000000000000000000000000028152600401808373ffffffffffffffffffffffffffffffffffffffff1673ffffffffffffffffffffffffffffffffffffffff16815260200182815260200192505050600060405180830381600087803b151561162457600080fd5b6102c65a03f1151561163557600080fd5b505050600360016003805490500381548110151561164f57fe5b906000526020600020906003020160038581548110151561166c57fe5b90600052602060002090600302016000820160009054906101000a900473ffffffffffffffffffffffffffffffffffffffff168160000160006101000a81548173ffffffffffffffffffffffffffffffffffffffff021916908373ffffffffffffffffffffffffffffffffffffffff1602179055506001820154816001015560028201548160020155905050600380548091906001900361170d9190612b0b565b5050505050565b61171c612ad3565b60003411151561172b57600080fd5b6060604051908101604052803373ffffffffffffffffffffffffffffffffffffffff168152602001348152602001428152509050600380548060010182816117739190612b3d565b9160005260206000209060030201600083909190915060008201518160000160006101000a81548173ffffffffffffffffffffffffffffffffffffffff021916908373ffffffffffffffffffffffffffffffffffffffff16021790555060208201518160010155604082015181600201555050507f2c33c574213feb1047a6378e9beca724f8bda16b6624875a6dee2edb3edfcdb6816000015182602001518360400151604051808473ffffffffffffffffffffffffffffffffffffffff1673ffffffffffffffffffffffffffffffffffffffff168152602001838152602001828152602001935050505060405180910390a150565b6118716129c8565b60008061187c612b6f565b60058581548110151561188b57fe5b906000526020600020906003020160606040519081016040529081600082018054600181600116156101000203166002900480601f01602080910402602001604051908101604052809291908181526020018280546001816001161561010002031660029004801561193e5780601f106119135761010080835404028352916020019161193e565b820191906000526020600020905b81548152906001019060200180831161192157829003601f168201915b50505050508152602001600182015481526020016002820154815250509050806000015181602001518260400151829250935093509350509193909250565b6119856129dc565b600115156000803373ffffffffffffffffffffffffffffffffffffffff1673ffffffffffffffffffffffffffffffffffffffff16815260200190815260200160002060009054906101000a900460ff1615151415156119e357600080fd5b60006004838154811015156119f457fe5b90600052602060002090600402016002015410151515611a1357600080fd5b600482815481101515611a2257fe5b9060005260206000209060040201608060405190810160405290816000820160009054906101000a900473ffffffffffffffffffffffffffffffffffffffff1673ffffffffffffffffffffffffffffffffffffffff1673ffffffffffffffffffffffffffffffffffffffff168152602001600182018054600181600116156101000203166002900480601f016020809104026020016040519081016040528092919081815260200182805460018160011615610100020316600290048015611b2b5780601f10611b0057610100808354040283529160200191611b2b565b820191906000526020600020905b815481529060010190602001808311611b0e57829003601f168201915b50505050508152602001600282015481526020016003820154815250509050600160009054906101000a900473ffffffffffffffffffffffffffffffffffffffff1673ffffffffffffffffffffffffffffffffffffffff166367fbd28982604001516040518263ffffffff167c010000000000000000000000000000000000000000000000000000000002815260040180828152602001915050600060405180830381600087803b1515611bde57600080fd5b6102c65a03f11515611bef57600080fd5b5050506004600160048054905003815481101515611c0957fe5b9060005260206000209060040201600483815481101515611c2657fe5b90600052602060002090600402016000820160009054906101000a900473ffffffffffffffffffffffffffffffffffffffff168160000160006101000a81548173ffffffffffffffffffffffffffffffffffffffff021916908373ffffffffffffffffffffffffffffffffffffffff16021790555060018201816001019080546001816001161561010002031660029004611cc2929190612b97565b5060028201548160020155600382015481600301559050506004805480919060019003611cef9190612c1e565b505050565b6000803373ffffffffffffffffffffffffffffffffffffffff1673ffffffffffffffffffffffffffffffffffffffff16815260200190815260200160002060009054906101000a900460ff1615611d9d5760016000808373ffffffffffffffffffffffffffffffffffffffff1673ffffffffffffffffffffffffffffffffffffffff16815260200190815260200160002060006101000a81548160ff0219169083151502179055505b50565b600115156000803373ffffffffffffffffffffffffffffffffffffffff1673ffffffffffffffffffffffffffffffffffffffff16815260200190815260200160002060009054906101000a900460ff161515141515611dfe57600080fd5b6000600582815481101515611e0f57fe5b90600052602060002090600302016001015410151515611e2e57600080fd5b611e63600582815481101515611e4057fe5b90600052602060002090600302016001015460075461299190919063ffffffff16565b6007819055506005600160058054905003815481101515611e8057fe5b9060005260206000209060030201600582815481101515611e9d57fe5b906000526020600020906003020160008201816000019080546001816001161561010002031660029004611ed2929190612b97565b5060018201548160010155600282015481600201559050506005805480919060019003611eff9190612c50565b5050565b6000806103e86006548402811515611f1757fe5b0490506000811415611f2c5760019150611f30565b8091505b50919050565b611f3e612b6f565b600115156000803373ffffffffffffffffffffffffffffffffffffffff1673ffffffffffffffffffffffffffffffffffffffff16815260200190815260200160002060009054906101000a900460ff161515141515611f9c57600080fd5b606060405190810160405280848152602001838152602001428152509050611fd381602001516007546129aa90919063ffffffff16565b60078190555060058054806001018281611fed9190612c82565b91600052602060002090600302016000839091909150600082015181600001908051906020019061201f929190612a53565b506020820151816001015560408201518160020155505050505050565b6000600580549050905090565b6000600754905090565b61205b612ad3565b600115156000803373ffffffffffffffffffffffffffffffffffffffff1673ffffffffffffffffffffffffffffffffffffffff16815260200190815260200160002060009054906101000a900460ff1615151415156120b957600080fd5b60006003838154811015156120ca57fe5b906000526020600020906003020160010154101515156120e957600080fd5b6003828154811015156120f857fe5b9060005260206000209060030201606060405190810160405290816000820160009054906101000a900473ffffffffffffffffffffffffffffffffffffffff1673ffffffffffffffffffffffffffffffffffffffff1673ffffffffffffffffffffffffffffffffffffffff168152602001600182015481526020016002820154815250509050806000015173ffffffffffffffffffffffffffffffffffffffff166108fc82602001519081150290604051600060405180830381858888f1935050505015156121c657600080fd5b60036001600380549050038154811015156121dd57fe5b90600052602060002090600302016003838154811015156121fa57fe5b90600052602060002090600302016000820160009054906101000a900473ffffffffffffffffffffffffffffffffffffffff168160000160006101000a81548173ffffffffffffffffffffffffffffffffffffffff021916908373ffffffffffffffffffffffffffffffffffffffff1602179055506001820154816001015560028201548160020155905050600380548091906001900361229b9190612b0b565b505050565b60008060006122ad612ad3565b600115156000803373ffffffffffffffffffffffffffffffffffffffff1673ffffffffffffffffffffffffffffffffffffffff16815260200190815260200160002060009054906101000a900460ff16151514151561230b57600080fd5b60038581548110151561231a57fe5b9060005260206000209060030201606060405190810160405290816000820160009054906101000a900473ffffffffffffffffffffffffffffffffffffffff1673ffffffffffffffffffffffffffffffffffffffff1673ffffffffffffffffffffffffffffffffffffffff168152602001600182015481526020016002820154815250509050806000015181602001518260400151935093509350509193909250565b6000600115156000803373ffffffffffffffffffffffffffffffffffffffff1673ffffffffffffffffffffffffffffffffffffffff16815260200190815260200160002060009054906101000a900460ff16151514151561241d57600080fd5b81600981905550919050565b60065481565b6000600954905090565b600115156000803373ffffffffffffffffffffffffffffffffffffffff1673ffffffffffffffffffffffffffffffffffffffff16815260200190815260200160002060009054906101000a900460ff16151514151561249757600080fd5b8173ffffffffffffffffffffffffffffffffffffffff166108fc829081150290604051600060405180830381858888f1935050505015156124d757600080fd5b5050565b600115156000803373ffffffffffffffffffffffffffffffffffffffff1673ffffffffffffffffffffffffffffffffffffffff16815260200190815260200160002060009054906101000a900460ff16151514151561253957600080fd5b8060068190555050565b61254b6129dc565b600115156000803373ffffffffffffffffffffffffffffffffffffffff1673ffffffffffffffffffffffffffffffffffffffff16815260200190815260200160002060009054906101000a900460ff1615151415156125a957600080fd5b60006004838154811015156125ba57fe5b906000526020600020906004020160020154101515156125d957600080fd5b6004828154811015156125e857fe5b9060005260206000209060040201608060405190810160405290816000820160009054906101000a900473ffffffffffffffffffffffffffffffffffffffff1673ffffffffffffffffffffffffffffffffffffffff1673ffffffffffffffffffffffffffffffffffffffff168152602001600182018054600181600116156101000203166002900480601f0160208091040260200160405190810160405280929190818152602001828054600181600116156101000203166002900480156126f15780601f106126c6576101008083540402835291602001916126f1565b820191906000526020600020905b8154815290600101906020018083116126d457829003601f168201915b50505050508152602001600282015481526020016003820154815250509050600160009054906101000a900473ffffffffffffffffffffffffffffffffffffffff1673ffffffffffffffffffffffffffffffffffffffff1663a9059cbb826000015183604001516000604051602001526040518363ffffffff167c0100000000000000000000000000000000000000000000000000000000028152600401808373ffffffffffffffffffffffffffffffffffffffff1673ffffffffffffffffffffffffffffffffffffffff16815260200182815260200192505050602060405180830381600087803b15156127e557600080fd5b6102c65a03f115156127f657600080fd5b5050506040518051905050600460016004805490500381548110151561281857fe5b906000526020600020906004020160048381548110151561283557fe5b90600052602060002090600402016000820160009054906101000a900473ffffffffffffffffffffffffffffffffffffffff168160000160006101000a81548173ffffffffffffffffffffffffffffffffffffffff021916908373ffffffffffffffffffffffffffffffffffffffff160217905550600182018160010190805460018160011615610100020316600290046128d1929190612b97565b50600282015481600201556003820154816003015590505060048054809190600190036128fe9190612c1e565b505050565b600115156000803373ffffffffffffffffffffffffffffffffffffffff1673ffffffffffffffffffffffffffffffffffffffff16815260200190815260200160002060009054906101000a900460ff16151514151561296157600080fd5b8060088190555050565b600160009054906101000a900473ffffffffffffffffffffffffffffffffffffffff1681565b600082821115151561299f57fe5b818303905092915050565b60008082840190508381101515156129be57fe5b8091505092915050565b602060405190810160405280600081525090565b608060405190810160405280600073ffffffffffffffffffffffffffffffffffffffff168152602001612a0d612cb4565b815260200160008152602001600081525090565b815481835581811511612a4e57600402816004028360005260206000209182019101612a4d9190612cc8565b5b505050565b828054600181600116156101000203166002900490600052602060002090601f016020900481019282601f10612a9457805160ff1916838001178555612ac2565b82800160010185558215612ac2579182015b82811115612ac1578251825591602001919060010190612aa6565b5b509050612acf9190612d2e565b5090565b606060405190810160405280600073ffffffffffffffffffffffffffffffffffffffff16815260200160008152602001600081525090565b815481835581811511612b3857600302816003028360005260206000209182019101612b379190612d53565b5b505050565b815481835581811511612b6a57600302816003028360005260206000209182019101612b699190612d53565b5b505050565b606060405190810160405280612b83612cb4565b815260200160008152602001600081525090565b828054600181600116156101000203166002900490600052602060002090601f016020900481019282601f10612bd05780548555612c0d565b82800160010185558215612c0d57600052602060002091601f016020900482015b82811115612c0c578254825591600101919060010190612bf1565b5b509050612c1a9190612d2e565b5090565b815481835581811511612c4b57600402816004028360005260206000209182019101612c4a9190612cc8565b5b505050565b815481835581811511612c7d57600302816003028360005260206000209182019101612c7c9190612da9565b5b505050565b815481835581811511612caf57600302816003028360005260206000209182019101612cae9190612da9565b5b505050565b602060405190810160405280600081525090565b612d2b91905b80821115612d2757600080820160006101000a81549073ffffffffffffffffffffffffffffffffffffffff0219169055600182016000612d0e9190612de8565b6002820160009055600382016000905550600401612cce565b5090565b90565b612d5091905b80821115612d4c576000816000905550600101612d34565b5090565b90565b612da691905b80821115612da257600080820160006101000a81549073ffffffffffffffffffffffffffffffffffffffff02191690556001820160009055600282016000905550600301612d59565b5090565b90565b612de591905b80821115612de15760008082016000612dc89190612de8565b6001820160009055600282016000905550600301612daf565b5090565b90565b50805460018160011615610100020316600290046000825580601f10612e0e5750612e2d565b601f016020900490600052602060002090810190612e2c9190612d2e565b5b505600a165627a7a72305820fa20b5f9c0f77c9066c5651eb71572cfb052b1a9d17bd4d6a68c9df1d60455a10029",
  "source": "pragma solidity ^0.4.8;\n\nimport \"./SafeMath.sol\";\nimport './OwnableMultiple.sol';\nimport './LNKSToken.sol';\n\ncontract LNKSExchange is OwnableMultiple {\n  using SafeMath for uint;\n\n  struct Order {\n    address buyer;\n    uint amount;\n    uint timestamp;\n  }\n\n  struct Redemption {\n    address redeemer;\n    string location;\n    uint amount;\n    uint timestamp;\n  }\n\n  struct Certificate {\n    string url;\n    uint amount;\n    uint timestamp;\n  }\n\n  LNKSToken public token;\n  mapping(address => bool) usedAddresses;\n\n  Order[] orders;\n  Redemption[] redemptions;\n  Certificate[] certificates;\n\n  uint public fee = 0;\n  uint silverReserves = 0;\n  uint availableTokens = 0;\n  uint silverPriceMarkup = 0;\n\n  function LNKSExchange() {\n    fee = 300; // 300 = 0.3% in 1-digit precision\n    silverPriceMarkup = 3000; // 3000 = 3% in 3-digit precision\n  }\n\n  function setTokenAddress(address _tokenAddress) public onlyOwner {\n    token = LNKSToken(_tokenAddress);\n  }\n\n  event BuyDirectEvent(address _buyer, uint _amount, uint _timestamp);\n  event RedeemEvent(address _redeember, uint _amount, uint _timestamp);\n\n  function buyDirect() public payable {\n    require(msg.value > 0);\n\n    Order memory order = Order({\n      buyer: msg.sender,\n      amount: msg.value,\n      timestamp: block.timestamp\n    });\n\n    orders.push(order);\n\n    BuyDirectEvent(order.buyer, order.amount, order.timestamp);\n  }\n\n  function getOrder(uint _index) public constant onlyOwner returns (address, uint, uint) {\n    Order memory order = orders[_index];\n    return (order.buyer, order.amount, order.timestamp);\n  }\n\n  function approveOrder(uint _index, uint _tokensAmount) public onlyOwner {\n    require(orders[_index].amount >= 0);\n\n    Order memory order = orders[_index];\n\n    // Deduct fee if address is never used\n    if (usedAddresses[order.buyer] == false) {\n      uint feeAmount = calculateFee(_tokensAmount);\n      _tokensAmount = _tokensAmount.sub(feeAmount);\n      token.mint(this, feeAmount);\n      usedAddresses[order.buyer] = true;\n    }\n\n    // mint tokens for the buyer\n    token.mint(order.buyer, _tokensAmount);\n\n    // remove order from orders array\n    orders[_index] = orders[orders.length-1];\n    orders.length--;\n  }\n\n  function declineOrder(uint _index) public onlyOwner {\n    require(orders[_index].amount >= 0);\n\n    Order memory order = orders[_index];\n    order.buyer.transfer(order.amount);\n\n    // remove order from orders array\n    orders[_index] = orders[orders.length-1];\n    orders.length--;\n  }\n\n  function setNewFee(uint _fee) public onlyOwner {\n    fee = _fee;\n  }\n\n  function calculateFee(uint _amount) public constant returns (uint) {\n    uint feeAmount = _amount * fee / 1000;\n\n    if (feeAmount == 0) {\n      return 1;\n    } else {\n      return feeAmount;\n    }\n  }\n\n  function getOrdersLength() public constant onlyOwner returns (uint) {\n    return orders.length;\n  }\n\n  function redeem(uint _value, string _location) public returns (uint) {\n    require(token.balanceOf(msg.sender) >= _value);\n\n    // Approve tokens transfer from sender to exchange vault\n    token.approveFrom(msg.sender, this, _value);\n    token.transferFrom(msg.sender, this, _value);\n\n    // Take note of executed redemption\n    Redemption memory redemption = Redemption({\n      redeemer: msg.sender,\n      amount: _value,\n      location: _location,\n      timestamp: block.timestamp\n    });\n\n    redemptions.push(redemption);\n\n    RedeemEvent(redemption.redeemer, redemption.amount, redemption.timestamp);\n  }\n\n  function approveRedemption(uint _index) public onlyOwner {\n    require(redemptions[_index].amount >= 0);\n\n    Redemption memory redemption = redemptions[_index];\n    token.destroyTokens(redemption.amount);\n\n    // remove order from orders array\n    redemptions[_index] = redemptions[redemptions.length-1];\n    redemptions.length--;\n  }\n\n  function declineRedemption(uint _index) public onlyOwner {\n    require(redemptions[_index].amount >= 0);\n\n    Redemption memory redemption = redemptions[_index];\n    token.transfer(redemption.redeemer, redemption.amount);\n\n    // remove order from orders array\n    redemptions[_index] = redemptions[redemptions.length-1];\n    redemptions.length--;\n  }\n\n  function getRedemptionsLength() public constant onlyOwner returns (uint) {\n    return redemptions.length;\n  }\n\n  function getRedemption(uint _index) public constant onlyOwner returns (address, uint, string, uint) {\n    Redemption memory redemption = redemptions[_index];\n    return (\n      redemption.redeemer,\n      redemption.amount,\n      redemption.location,\n      redemption.timestamp\n    );\n  }\n\n  function addCertificate(string _url, uint _amount) public onlyOwner {\n    Certificate memory certificate = Certificate({\n      url: _url,\n      amount: _amount,\n      timestamp: block.timestamp\n    });\n\n    silverReserves = silverReserves.add(certificate.amount);\n\n    certificates.push(certificate);\n  }\n\n  function getCertificatesLength() public constant returns (uint) {\n    return certificates.length;\n  }\n\n  function getCertificate(uint _index) public constant returns (string, uint, uint) {\n    Certificate memory certificate = certificates[_index];\n    return (\n      certificate.url,\n      certificate.amount,\n      certificate.timestamp\n    );\n  }\n\n  function deleteCertificate(uint _index) public onlyOwner {\n    require(certificates[_index].amount >= 0);\n\n    silverReserves = silverReserves.sub(certificates[_index].amount);\n\n    certificates[_index] = certificates[certificates.length-1];\n    certificates.length--;\n  }\n\n  function setAvailableTokens(uint _availableTokens) public onlyOwner {\n    availableTokens = _availableTokens;\n  }\n\n  function tokensSupplyAvailable() public constant returns (int) {\n    return int(availableTokens) - int(token.totalSupply());\n  }\n\n  function getSilverReserves() public constant returns (uint) {\n    return silverReserves;\n  }\n\n  function setSilverPriceMarkup(uint _silverPriceMarkup) public onlyOwner returns (uint) {\n    silverPriceMarkup = _silverPriceMarkup;\n  }\n\n  function getSilverPriceMarkup() public constant returns (uint) {\n    return silverPriceMarkup;\n  }\n\n  function withdraw(address _to, uint _amount) public onlyOwner {\n    _to.transfer(_amount);\n  }\n\n  /*\n  * Fallback function in case someone accidentally sends Ether to the contract\n   */\n  function() public payable {}\n}\n",
  "sourcePath": "/Users/macbook/Documents/Projects/LNKS-payment/contracts/LNKSExchange.sol",
  "compiler": {
    "name": "solc",
    "version": "0.4.19+commit.c4cbbb05.Emscripten.clang"
  },
  "schemaVersion": "2.0.0",
  "updatedAt": "2018-04-12T17:04:19.485Z"
}