{
  "contractName": "OwnableMultiple",
  "abi": [
    {
      "constant": true,
      "inputs": [
        {
          "name": "",
          "type": "address"
        }
      ],
      "name": "owners",
      "outputs": [
        {
          "name": "",
          "type": "bool"
        }
      ],
      "payable": false,
      "stateMutability": "view",
      "type": "function"
    },
    {
      "inputs": [],
      "payable": false,
      "stateMutability": "nonpayable",
      "type": "constructor"
    },
    {
      "constant": true,
      "inputs": [
        {
          "name": "addr",
          "type": "address"
        }
      ],
      "name": "validate",
      "outputs": [
        {
          "name": "",
          "type": "bool"
        }
      ],
      "payable": false,
      "stateMutability": "view",
      "type": "function"
    },
    {
      "constant": false,
      "inputs": [
        {
          "name": "addr",
          "type": "address"
        }
      ],
      "name": "addOwner",
      "outputs": [],
      "payable": false,
      "stateMutability": "nonpayable",
      "type": "function"
    },
    {
      "constant": false,
      "inputs": [
        {
          "name": "addr",
          "type": "address"
        }
      ],
      "name": "removeOwner",
      "outputs": [],
      "payable": false,
      "stateMutability": "nonpayable",
      "type": "function"
    }
  ],
  "bytecode": "0x6060604052341561000f57600080fd5b60016000803373ffffffffffffffffffffffffffffffffffffffff1673ffffffffffffffffffffffffffffffffffffffff16815260200190815260200160002060006101000a81548160ff021916908315150217905550610374806100756000396000f300606060405260043610610062576000357c0100000000000000000000000000000000000000000000000000000000900463ffffffff168063022914a714610067578063173825d9146100b8578063207c64fb146100f15780637065cb4814610142575b600080fd5b341561007257600080fd5b61009e600480803573ffffffffffffffffffffffffffffffffffffffff1690602001909190505061017b565b604051808215151515815260200191505060405180910390f35b34156100c357600080fd5b6100ef600480803573ffffffffffffffffffffffffffffffffffffffff1690602001909190505061019b565b005b34156100fc57600080fd5b610128600480803573ffffffffffffffffffffffffffffffffffffffff16906020019091905050610247565b604051808215151515815260200191505060405180910390f35b341561014d57600080fd5b610179600480803573ffffffffffffffffffffffffffffffffffffffff1690602001909190505061029c565b005b60006020528060005260406000206000915054906101000a900460ff1681565b6000803373ffffffffffffffffffffffffffffffffffffffff1673ffffffffffffffffffffffffffffffffffffffff16815260200190815260200160002060009054906101000a900460ff16156102445760008060008373ffffffffffffffffffffffffffffffffffffffff1673ffffffffffffffffffffffffffffffffffffffff16815260200190815260200160002060006101000a81548160ff0219169083151502179055505b50565b60008060008373ffffffffffffffffffffffffffffffffffffffff1673ffffffffffffffffffffffffffffffffffffffff16815260200190815260200160002060009054906101000a900460ff169050919050565b6000803373ffffffffffffffffffffffffffffffffffffffff1673ffffffffffffffffffffffffffffffffffffffff16815260200190815260200160002060009054906101000a900460ff16156103455760016000808373ffffffffffffffffffffffffffffffffffffffff1673ffffffffffffffffffffffffffffffffffffffff16815260200190815260200160002060006101000a81548160ff0219169083151502179055505b505600a165627a7a72305820603a021f3358994e037eab710934c4beebf82205e410bf69b19aabda53febb100029",
  "source": "pragma solidity ^0.4.8;\n\n\n/* MultiAccountValidator\n*\n* Base contract with multiple owners\n*/\ncontract OwnableMultiple {\n    mapping(address => bool) public owners;\n\n    function OwnableMultiple() {\n        owners[msg.sender] = true;\n    }\n\n    function validate(address addr) constant returns (bool) {\n        return owners[addr];\n    }\n\n    modifier onlyOwner() {\n      require(owners[msg.sender] == true);\n      _;\n    }\n\n    function addOwner(address addr) {\n      if(owners[msg.sender])\n        owners[addr] = true;\n    }\n\n    function removeOwner(address addr) {\n      if (owners[msg.sender])\n        owners[addr] = false;\n    }\n}\n",
  "sourcePath": "/Users/macbook/Documents/Projects/LNKS-payment/contracts/OwnableMultiple.sol",
  "compiler": {
    "name": "solc",
    "version": "0.4.19+commit.c4cbbb05.Emscripten.clang"
  },
  "schemaVersion": "2.0.0",
  "updatedAt": "2018-04-03T06:19:38.435Z"
}